:020000041000EA
:1000000000B5324B212058609868022188439860DF
:10001000D860186158612E4B002199600221596106
:100020000121F02299502B49196001219960352056
:1000300000F044F80222904214D00621196600F024
:1000400034F8196E01211966002018661A6600F04E
:100050002CF8196E196E196E052000F02FF8012189
:100060000842F9D1002199601B49196000215960AB
:100070001A491B48016001219960EB211966A021F2
:10008000196600F012F800219960164914480160C1
:100090000121996001BC002800D000471248134993
:1000A000086003C880F30888084703B5996A0420EC
:1000B0000142FBD001200142F8D103BD02B5186610
:1000C0001866FFF7F2FF186E186E02BD00000240BE
:1000D000000000180000070000035F00212200005C
:1000E000F4000018222000A00001001008ED00E03C
:1000F00000000000000000000000000074B24E7A12
:1001000000200420F7010010C3010010C5010010F9
:10011000C1010010C1010010C1010010C101001097
:10012000C1010010C1010010C1010010C701001081
:10013000C1010010C1010010C9010010CB01001065
:10014000CD010010CD010010CD010010CD01001037
:10015000CD01001059160010CD010010CD01001086
:10016000CD010010CD010010CD010010CD01001017
:10017000CD010010CD010010CD010010CD01001007
:10018000CD010010CD010010CD010010CD010010F7
:10019000CD010010CD010010CD010010CD010010E7
:1001A000CD010010CD010010CD010010CD010010D7
:1001B000CD010010CD010010CD010010CD010010C7
:1001C00000BE00BE00BE00BE00BE00BEEFF3058054
:1001D000103800BEF2EB8871F43600101C370010A6
:1001E0003802001090A31AE71E481F49086006C88D
:1001F00081F3088810471D480068002801D019487D
:10020000F3E70DA40ECC002902D000F012F8F9E7B4
:100210001749184A002000E001C19142FCD116495B
:100220008847164988471649884700BEFDE701C937
:1002300001C29A42FBD370471C370010C000002057
:10024000F8030020543A00100000042000000420AD
:10025000543A001000100420001004200000000098
:10026000704700000000000008ED00E0000000D032
:10027000F8030020380802206D2E001065040010DD
:10028000652E0010F8B5C0460448054B10B58342F2
:1002900003D0044B002B00D0984710BDF80300207A
:1002A000F80300200000000006480749091A8B10D7
:1002B000C90FC91810B5491003D0044B002B00D04A
:1002C000984710BDF8030020F8030020000000004C
:1002D00010B5074C2378002B09D1FFF7D5FF054B4C
:1002E000002B02D0044800E000BF0123237010BDA2
:1002F000780600200000000038350010054B10B5CE
:10030000002B03D00449054800E000BFFFF7CCFFF5
:1003100010BDC046000000007C06002038350010EB
:10032000F0B5C646114B802500269846042700B537
:100330000F4C6D0043461F6023682B42FCD0606861
:10034000C005000E01F020FA730306D1330306D571
:10035000D02380221B06D2005A610136EAE7D0235F
:1003600080221B06D2009A610136E3E700E00440D8
:1003700000C00440F8B5CE46474680B502F086FE80
:100380000A2001F0EFFA0B2001F0ECFA0C2001F04A
:10039000E9FAD0238020802180221B065201C00070
:1003A0000901586259625A62986199619A6102F032
:1003B000CFFF1F211A2001F08DFA002200211A2000
:1003C00001F0A2FA00211A2001F0B8FAE0221D4B38
:1003D000D2011B68042113401B4A0520136001F061
:1003E00079FA312300260127A0259946174CAD0341
:1003F000A66226636663A363D033FF33E362984645
:10040000134BA7621B68134A6B401B0C1B04136041
:100410000421032001F05EFA4B466661E661266224
:1004200063624346A3610C4B67611B680B485D40E8
:100430002D0C0B4B2D041D6002F0F0FFC0BCB94623
:10044000B046F8BD00C0044000D0044000000540A4
:100450003400054034100540200005402103001001
:100460002010054010B590B0FFF784FF02F00EFE9B
:1004700000F014FBD02380221B06164C52015A6157
:100480002378002B05D1012001F0B2FF2378002B47
:10049000F9D0D02380221B0612015A61012000F0FE
:1004A00049FA4022002100F04BFB4021684601F050
:1004B000B1F90028F9D0822000F03CFA69464022C8
:1004C00000F03EFB4021684601F0A4F90028ECD082
:1004D000F1E7C046340802207047C046584B5A69BD
:1004E000002A03D09278012A00D195E0DA6A002A26
:1004F00003D09278012A00D190E05A6C002A03D0F0
:100500009278012A00D18BE0DA6D002A03D092782C
:10051000012A00D186E05A6F002A03D09278012A7E
:1005200000D181E08C229A58002A03D09278012AC7
:1005300000D17BE0A4229A58002A03D09278012AA5
:1005400000D175E0BC229A58002A03D09278012A83
:1005500000D16FE0D4229A58002A02D09278012A62
:1005600047D0EC229A58002A02D09278012A42D031
:10057000822252009A58002A02D09278012A3CD056
:100580008E2252009A58002A02D09278012A37D03F
:100590009A2252009A58002A02D09278012A32D028
:1005A000A62252009A58002A02D09278012A2DD011
:1005B000B22252009A58002A02D09278012A28D0FA
:1005C000BE2252009A58002A36D092787D33FF33EB
:1005D000012A31D1197D0A00501E82418820C000B5
:1005E00084460120414019755203DB6862441A6059
:1005F0007047D433EEE7EC33ECE70533FF33E9E73C
:100600001D33FF33E6E73533FF33E3E74D33FF3385
:10061000E0E76533FF33DDE71433DBE72C33D9E75D
:100620004433D7E75C33D5E77433D3E78C33D1E772
:10063000A433CFE7BC33CDE700231B68FFDEC04601
:10064000A001002070B55B4C0D006269002A03D048
:100650009278822A00D19AE0E26A002A03D0927846
:10066000822A00D195E0626C002A03D09278822A17
:1006700000D190E0E26D002A03D09278822A00D166
:100680008BE0626F002A03D09278822A00D186E044
:100690008C22A258002A03D09278822A00D180E0CE
:1006A000A422A258002A03D09278822A00D17AE0AC
:1006B000BC22A258002A03D09278822A00D174E08A
:1006C000D422A258002A02D09278822A4CD0EC225E
:1006D000A258002A02D09278822A47D08222520061
:1006E000A258002A02D09278822A41D08E2252004B
:1006F000A258002A02D09278822A3CD09A22520034
:10070000A258002A02D09278822A37D0A62252001C
:10071000A258002A02D09278822A32D0B222520005
:10072000A258002A02D09278822A2DD0BE225200EE
:10073000A258002A3BD092787D34FF34822A36D1E9
:100740002A000100206902F037FB8422237D120277
:100750002A43002B02D0A42212022A4301214B403B
:100760002375E3681A6070BDD434E9E7EC34E7E739
:100770000534FF34E4E71D34FF34E1E73534FF345A
:10078000DEE74D34FF34DBE76534FF34D8E714345B
:10079000D6E72C34D4E74434D2E75C34D0E7743461
:1007A000CEE78C34CCE7A434CAE7BC34C8E70023D6
:1007B0001B68FFDEA00100205A4B1A78002A06D0E1
:1007C000594A1178594A116000221A707047584BE3
:1007D0005A69002A03D09278002A00D181E0DA6AAF
:1007E000002A02D09278002A7DD05A6C002A02D0CA
:1007F0009278002A79D0DA6D002A02D09278002A05
:1008000075D05A6F002A02D09278002A71D08C22BB
:100810009A58002A02D09278002A6CD0A4229A58C2
:10082000002A02D09278002A67D0BC229A58002A67
:1008300002D09278002A62D0D4229A58002A02D09C
:100840009278002A5DD0EC229A58002A02D0927841
:10085000002A58D0822252009A58002A02D0927858
:10086000002A52D08E2252009A58002A02D0927842
:10087000002A4DD09A2252009A58002A02D092782B
:10088000002A48D0A62252009A58002A02D0927814
:10089000002A20D0B22252009A58002A02D0927820
:1008A000002A1BD0BE2252009A58002A36D09278D5
:1008B0007D33FF33002A31D1197D0A00501E824159
:1008C0008020C00084460120414052031975DB6836
:1008D00062441A607AE74D33FF33EDE76533FF3347
:1008E000EAE71433E8E72C33E6E74433E4E75C3324
:1008F000E2E77433E0E78C33DEE7A433DCE7BC33B4
:10090000DAE7D433D8E7EC33D6E70533FF33D3E760
:100910001D33FF33D0E73533FF33CDE700231B68AA
:10092000FFDEC046370802203508022000001150C3
:10093000A0010020584B02005969002903D0897892
:10094000814200D190E0D96A002903D08978914290
:1009500000D18CE0596C002903D08978914200D1F4
:1009600088E0D96D002903D08978914200D184E0D4
:10097000596F002903D08978914200D180E08C2101
:100980005958002903D08978914200D17BE0A421F5
:100990005958002903D08978914200D176E0BC21D2
:1009A0005958002903D08978914200D171E0D421AF
:1009B0005958002902D08978914238D0EC215958F1
:1009C000002902D08978914234D0822149005958B7
:1009D000002902D0897891422FD08E2149005958A0
:1009E000002902D0897891422AD09A214900595889
:1009F000002902D08978914226D0A6214900595871
:100A0000002902D08978914222D0B2214900595858
:100A1000002902D0897891421ED0BE214900585841
:100A2000002803D081780020914219D07047D43338
:100A30001800FBE7EC331800F8E7581DFF30F5E726
:100A40001D33FF331800F1E73533FF331800EDE7AE
:100A50004D33FF331800E9E76533FF331800E5E74E
:100A60007D33FF331800E1E714331800DEE72C3341
:100A70001800DBE744331800D8E75C331800D5E7EB
:100A800074331800D2E78C331800CFE7A433180072
:100A9000CCE7BC331800C9E7A00100208022204B1E
:100AA000520470B51A601F4B1F491A6010000B6882
:100AB0009843FBD18022002152011C4802F076F9B4
:100AC0000121052000F0D4FF0922194B19495A676A
:100AD00003329A670B3A1A6480229205DA649022F4
:100AE0009950154BA0251C00104E8134FF342D0663
:100AF000596900290CD09A69002A09D0D8690028C0
:100B000006D05A6AC978724089060A432A430260AD
:100B100018339C42ECD18022084B5202DA6470BD3B
:100B200000E0004000F0004008C00040000010500D
:100B30000000115010100100A001002000201150F1
:100B400070B5036805009B7814007F2B0ED88022B7
:100B5000D20022432B7D002B02D0802189010A4341
:100B600001214B402B75EB681A6070BD006902F0E3
:100B700023F9842212022243ECE7C0466A4B70B587
:100B80005A69002A03D09278802A00D1ABE0DA6A51
:100B9000002A03D09278802A00D1A7E05A6C002A5C
:100BA00003D09278802A00D1A3E0DA6D002A03D026
:100BB0009278802A00D19FE05A6F002A03D0927861
:100BC000802A00D19BE08C229A58002A03D0927888
:100BD000802A00D196E0A4229A58002A03D0927865
:100BE000802A00D191E0BC229A58002A03D0927842
:100BF000802A00D18CE0D4229A58002A02D0927820
:100C0000802A57D0EC229A58002A02D09278802A63
:100C100053D0822252009A58002A02D09278802A19
:100C20004ED08E2252009A58002A02D09278802A02
:100C300049D09A2252009A58002A02D09278802AEB
:100C400045D0A62252009A58002A02D09278802AD3
:100C500041D0B22252009A58002A02D09278802ABB
:100C60003DD0BE2252009A58002A59D01C009278DA
:100C70007D34FF34802A53D119680123237582798A
:100C8000C37912251B021343122B0ED92A002069A7
:100C900002F092F88423217D1B0201222B430029BC
:100CA00039D12275E268136070BD8279C5792D0251
:100CB0001543EBE71C00D434DEE71C00EC34DBE723
:100CC0005C1DFF34D8E71C001D34FF34D4E71C0042
:100CD0003534FF34D0E71C004D34FF34CCE71C0022
:100CE0006534FF34C8E71C001434C5E71C002C34FD
:100CF000C2E71C004434BFE71C005C34BCE71C00A6
:100D00007434B9E71C008C34B6E71C00A434B3E794
:100D10001C00BC34B0E7A4231B022B434A40C0E7AD
:100D200000231B75FFDEC046A0010020F8B5474632
:100D3000CE4680B50700894B894E9846B468092293
:100D40002100180002F038F8BB79FA79A178120274
:100D50001A43E37844461B020B4309349A4200D3FA
:100D6000AEE04346E41A7369002B03D09B78802BD6
:100D700000D1DAE0F36A002B03D09B78802B00D1FE
:100D8000D6E0736C002B03D09B78802B00D1D2E08F
:100D9000F36D002B03D09B78802B00D1CEE0736FD6
:100DA000002B03D09B78802B00D1CAE08C23F35812
:100DB000002B03D09B78802B00D1C5E0A423F358EF
:100DC000002B03D09B78802B00D1C0E0BC23F358CC
:100DD000002B03D09B78802B00D1BBE0D423F358A9
:100DE000002B03D09B78802B00D181E0EC23F358BB
:100DF000002B03D09B78802B00D17CE082235B000A
:100E0000F358002B03D09B78802B00D176E08E2303
:100E10005B00F358002B03D09B78802B00D170E04F
:100E20009A235B00F358002B02D09B78802B6CD068
:100E3000A6235B00F358002B02D09B78802B68D050
:100E4000B2235B00F358002B02D09B78802B64D038
:100E5000BE235B00F358002B02D09B78802B60D020
:100E6000002300251B689B78B979FA7912020A439E
:100E7000A24218D8B979FC795BB224020C43002B4A
:100E800015DB8023DB001C432B7D002B02D080224E
:100E900092011443012253402B75EB681C60C0BCC7
:100EA000B946B046F8BD5BB2A4B2002BE9DA220025
:100EB0004146286901F080FF84231B021C43E3E7BD
:100EC00020000922716801F077FFA8235B00994692
:100ED00044463500B1441234696C002904D0200026
:100EE000072201F069FF073418354D45F4D138E782
:100EF0003500D435B8E73500EC35B5E7751DFF355D
:100F0000B2E735001D35FF35AEE735003535FF3525
:100F1000AAE735004D35FF35A6E735006535FF35C5
:100F2000A2E735007D35FF359EE7350014359BE798
:100F300035002C3598E73500443595E735005C35AC
:100F400092E7350074358FE735008C358CE7350036
:100F5000A43589E73500BC3586E7C046CC060220BB
:100F6000A0010020F8B583780600C278002B00D0DD
:100F7000A6E0804F804C04223800E16801F01CFF9D
:100F800004256369002B03D09B78802B00D1DEE021
:100F9000E36A002B03D09B78802B00D1D9E0636CEF
:100FA000002B03D09B78802B00D1D4E0E36D002B85
:100FB00003D09B78802B00D1CFE0636F002B03D050
:100FC0009B78802B00D1CAE08C23E358002B03D000
:100FD0009B78802B00D1C4E0A423E358002B03D0DE
:100FE0009B78802B00D1BEE0BC23E358002B03D0BC
:100FF0009B78802B00D1B8E0D423E358002B03D09A
:101000009B78802B00D17AE0EC23E358002B03D0AF
:101010009B78802B00D186E082235B00E358002B75
:1010200003D09B78802B00D17FE08E235B00E358B8
:10103000002B03D09B78802B00D179E09A235B00B2
:10104000E358002B03D09B78802B00D173E0A623BC
:101050005B00E358002B03D09B78802B00D16DE020
:10106000B2235B00E358002B02D09B78802B68D022
:10107000BE235B00E358002B02D09B78802B63D00B
:10108000B279F3791B021343AB4200D96FE0B37915
:10109000F57980222D021D4300231B68D2009B7826
:1010A00000242A437F2B35D8237D002B02D08021BA
:1010B00089010A4301214B402375E3681A60F8BD9A
:1010C0002E4A2D4C9446226963449B009D5828006B
:1010D00002F0CAF90130274F4000C3B23B709C4672
:1010E0000323290000257B70BB1C08780131187090
:1010F0005D7002330028F8D163469DB241E7D434D5
:10110000B279F3791B021343AB4203D8B379F57973
:101110002D021D432A003900206901F04DFE842272
:1011200012022A43C0E7EC34EAE70534FF34E7E76C
:101130001D34FF34E4E73534FF34E1E74D34FF3448
:10114000DEE76534FF34DBE77D34FF34D8E7143461
:10115000D6E72C34D4E74434D2E75C34D0E7743497
:10116000CEE78C34CCE7A434CAE7BC34C8E700230C
:101170001B68FFDECC060220A0010020FFFFFF3F1E
:1011800070B59D4B1C785A789C4BE4B25869D2B22A
:10119000002803D08178802900D108E2D96A00298B
:1011A00003D08978802900D104E2596C002903D04A
:1011B0008978802900D100E2D96D002903D089788F
:1011C000802900D1FCE1596F002903D0897880295A
:1011D00000D1F8E18C215958002903D08978802961
:1011E00000D1F3E1A4215958002903D0897880293E
:1011F00000D1EEE1BC215958002903D0897880291B
:1012000000D1E9E1D4215958002903D089788029F7
:1012100000D194E1EC215958002903D08978802924
:1012200000D18FE1822149005958002903D08978E3
:10123000802900D189E18E2149005958002903D025
:101240008978802900D183E19A21490059580029E1
:1012500003D08978802900D17EE1A6214900595820
:10126000002903D08978802900D179E1B221490091
:101270005958002903D08978802900D174E1BE2112
:1012800049005958002900D1D6E18D7819007D31E7
:10129000FF31802D00D0CFE101250D75002C00D04D
:1012A00097E0052A00D140E1092A00D1A8E00028F2
:1012B00003D08278802A00D191E1DA6A002A03D033
:1012C0009278802A00D18CE15A6C002A03D092785F
:1012D000802A00D187E1DA6D002A03D09278802A33
:1012E00000D182E15A6F002A03D09278802A00D17F
:1012F0007DE18C229A58002A03D09278802A00D16E
:101300003CE1A4229A58002A03D09278802A00D186
:1013100036E1BC229A58002A03D09278802A00D164
:1013200032E1D4229A58002A03D09278802A00D140
:1013300028E1EC229A58002A03D09278802A00D122
:1013400024E1822252009A58002A03D09278802AFF
:1013500000D120E18E2252009A58002A03D09278C0
:10136000802A00D114E19A2252009A58002A03D010
:101370009278802A00D117E1A62252009A58002ABA
:1013800003D09278802A00D10BE1B22252009A5801
:10139000002A03D09278802A00D1FFE0BE225200BA
:1013A0009A58002A00D14AE192787D33FF33802A8F
:1013B00000D044E1197D0A00501E824184200002C1
:1013C00084460120414052031975DB6862441A606B
:1013D00001E0802C00D070BD062AFCD1064843886D
:1013E0001B0A022B00D1C6E0032B00D1C0E0012B69
:1013F000F1D1FFF7C3FBEEE700001050A001002081
:10140000002803D08278802A00D1F6E0DA6A002A28
:1014100003D09278802A00D1EDE05A6C002A03D0E4
:101420009278802A00D1E4E0DA6D002A03D0927825
:10143000802A00D1E5E05A6F002A03D09278802AF2
:1014400000D1DCE08C229A58002A03D09278802ABE
:1014500000D1DEE0A4229A58002A03D09278802A94
:1014600000D1D4E0BC229A58002A03D09278802A76
:1014700000D1CAE0D4229A58002A03D09278802A58
:1014800000D1C0E0EC229A58002A03D09278802A3A
:1014900000D1CFE0822252009A58002A03D09278DD
:1014A000802A00D1C3E08E2252009A58002A03D02D
:1014B0009278802A00D1B7E09A2252009A58002AE6
:1014C00003D09278802A00D1ABE0A62252009A582D
:1014D000002A03D09278802A00D19FE0B2225200E5
:1014E0009A58002A03D09278802A00D193E0BE2235
:1014F00052009A58002A00D1A1E092787D33FF3340
:10150000802A00D09BE0197D0A00501E8241842071
:10151000000284460120414052031975DB68624491
:101520001A600122474B1A7055E7474A5188474ACB
:101530001170474A1570002800D0BAE6BDE61900C0
:10154000D431A9E61900EC31A6E6591DFF31A3E616
:1015500019001D31FF319FE619003531FF319BE63F
:1015600019004D31FF3197E619006531FF3193E6DF
:10157000FFF7F8FC2FE7FFF7D9FB2CE78C3319E7CF
:10158000A43317E7D43315E7BC3313E7EC3311E783
:101590001D33FF330EE70533FF330BE76533FF33AE
:1015A00008E74D33FF3305E73533FF3302E7190012
:1015B000143171E619002C316EE6190044316BE6E6
:1015C00019005C3168E61900743165E619008C3148
:1015D00062E61900A4315FE61900BC315CE61D4BE0
:1015E000E8E62C33E6E64433E4E65C33E2E67433C3
:1015F000E0E6443387E72C3385E7164B83E7743303
:1016000081E75C337FE7D4337DE7BC337BE7A433EA
:1016100079E78C3377E76533FF3374E74D33FF3376
:1016200071E73533FF336EE71D33FF336BE7053367
:10163000FF3368E7EC3366E700231B75FFDE00230A
:101640001B68FFDE3408022000001050350802201D
:1016500037080220B4010020F8B5574645469823C4
:10166000DE464E463F4AE0B5D75880243900640232
:10167000883B9846214027421BD1FB0624D4802377
:101680005B011F420DD080221943374B12031A65AC
:101690000023364A1370364A1370324A1360354AB3
:1016A0001370B94259D1F0BCBB46B246A946A04618
:1016B000F8BD80222C4B92021A65FFF761FD2E4B7C
:1016C00021009846FB06DAD5264B9E6D002E2DD0C4
:1016D000254B00259A4601239946284B01249B4619
:1016E00003E064000135202D20D03442F9D0534668
:1016F0009C654B462B4059424B4100206A08DB0158
:101700001343DBB29C461E4B1968002905D05A686A
:10171000002A02D0897861450AD001301833102898
:10172000F2D1A64301356400002EDCD14146A6E784
:10173000411C4B005B18DB005B449B68A6431968A7
:1017400043001818C00089055844406A890D904725
:1017500064000135002EC6D1E8E70A48794000F060
:1017600021F9C04600001150003011503508022008
:10177000370802203408022010000100A0010020D8
:10178000B401002038350010F0B54F464646D64625
:10179000C0B51C4E84B033680500029373681A4FBD
:1017A00099460393194B34689A46194B9846B844A6
:1017B000029B039A934220D39B1A534520D0257055
:1017C000029B5C1CBC4211D2002322000193033314
:1017D00000934B46300002A901F0F4FA0028E7D04C
:1017E00004B0E0BCBA46B146A846F0BD0023019360
:1017F0000333444642460093EBE7D31A012BDED174
:101800000020EDE73803002094060220FFFF0100CE
:101810000000FEFFF0B55746DE464E464546E0B5B1
:10182000294E85B0336805009B46029373680C000F
:101830000393264B264F9A46BA44029B03998B4248
:101840001DD35B1AA3423CDB0B199846BB421BD24B
:101850002200280001F0B0FA002301930333009323
:101860005A464346300002A901F0ACFA0028E4D001
:1018700005B0F0BCBB46B246A946A046F0BD8022EA
:10188000CB1A9202D31ADDE77B1A98461A00280079
:1018900001F092FA4346E31A994643464A465146B6
:1018A000E81801F089FA00224B46019203320092B7
:1018B00030005A46534402A901F084FA0028D7D1D7
:1018C000BBE70020D4E7C046380300200000FEFF3D
:1018D0009406022010B54024084A83009A18126822
:1018E000C0005440C0222240054CA44663441A6004
:1018F000044B9C466044416010BDC04604C001409A
:1019000004D00140004001400B4B80009C466044E5
:1019100000290ED100230431002A00D119008022B1
:1019200003685201594094460C2360440B40036005
:1019300070470C210823EFE704C001408000002914
:1019400005D0064B9C464023604403607047044B1F
:101950009C46402360440360F8E7C04604E0014031
:1019600004F001400123D0228340402112069362FB
:101970009361094A83009A181268C0005140C0223E
:101980000A4006498C4663441A60054B9C46052371
:10199000604443607047C04604C0014004D0014029
:1019A000004001400FB400B5084883B001F0C0FB0F
:1019B000049B002B07D005A91800019101F038FA0B
:1019C000034801F0B5FB012001F04AFABC350010D4
:1019D000CC35001070B5EFF3108C72B60D4D2B683E
:1019E000002BFCD0BFF35F8F0724CB08C618C05C68
:1019F00001230C40A3401C000440034207D10343D1
:101A00003370BFF35F8F2C608CF3108870BD1000B3
:101A1000FFF7C8FF2C0100D0044A1078431CDBB24A
:101A2000172B00D9102313707047C04640030020C5
:101A30000021044B044ABFF35F8F02C39342FAD1E3
:101A40007047C046000100D0800100D0054B064A17
:101A50001360064A136053609360D360136153614F
:101A6000936170478080808000E400E004E400E03F
:101A70001F2318401E3B8340002905D0C021044A83
:101A80004900535013607047802201498B50FAE798
:101A900000E100E001228240034B1B6813405A1E04
:101AA0009341D8B27047C04600E100E070B50D0028
:101AB000EFF3108672B60F4A1368002BFCD0BFF309
:101AC0005F8F0D4B10309B6884001B590B4A93426B
:101AD00003D09D4201D000F08DFF074B9B681D5144
:101AE000BFF35F8FBFF35F8F0022024B1A6086F354
:101AF000108870BD240100D000ED00E0CD01001081
:101B0000F0B5DE4657464E464546E0B50C0083B07C
:101B1000EFF3108972B65F4A1368002BFCD0BFF355
:101B20005F8F5D4B9A68030010339F00D5595B4A65
:101B3000904695423DD0A5424ED0594EAA1B2F2A21
:101B400037D8584A93461268944601226146924615
:101B5000824011401F22104052468240924601911D
:101B60008022514658468150BFF35F8FEFF30582C4
:101B70009346002A32D101232A009A439068844276
:101B800008D17CE04B005B189B00F31898688442F6
:101B90002ED01A00062151560029F3DA84424DD086
:101BA000019B002B1FD0C02251463E4B5200995042
:101BB0001960394B9B68DD51BFF35F8FBFF35F8FB7
:101BC0000022344B1A6089F3108803B0F0BCBB4686
:101BD000B246A946A046F0BD1500EAE79342CAD036
:101BE00000F008FFC7E7802351462E4AD150E0E7B6
:101BF00006215956002922DB4A005018800034186B
:101C00008046A0689860E079D871062020569871C7
:101C1000002825DBA488F01A640524154444001923
:101C2000E0240005400D24022043988052181E4BEA
:101C30009200B6181A781970B271B1E713005946BC
:101C400000290FD1FF3191711849918016490A7806
:101C50009A71174A9B1B5B415A43120D0A709FE70A
:101C60001448E2E7144A1549D21A083A5002400DC6
:101C700001439980124952080A43DA8090E706210D
:101C8000515613000029B7DA5A46002AEAD14546D0
:101C9000DCE7C046240100D000ED00E0CD010010DB
:101CA0004403002000E100E03608022001BDFFFFF0
:101CB000AAAA000001BD00007E03002000F0FFFF83
:101CC00000F8FFFF70B501240443EFF30581EFF343
:101CD000108C72B6214A1368002BFCD0BFF35F8FC3
:101CE0001F4B05001F4AED1A6D416A43120D1E4D30
:101CF0008900AE6852B27658A6421CD006215956C9
:101D000091421CD012215956914222D01E2159567F
:101D1000914220D02A2159560324914210D0134BCE
:101D200019781A708171BFF35F8F00220B4B1A6014
:101D30008CF3108870BDAB680D4C5C50EFE700244D
:101D40006100091989005B18FF219971094999807F
:101D5000E5E70124F4E70224F2E7C046240100D0BD
:101D600044030020AAAA000000ED00E0360802208B
:101D7000CD01001001BDFFFF024B9C46614489006C
:101D80000160704740000034F8B5134D134E2C002D
:101D9000FF27B5421ED22368002B0FD0FFF73CFE71
:101DA00001002800FFF7E8FFA780BFF35F8F08342A
:101DB000B4420FD223682500002BEFD1FFF72CFE91
:101DC00001002800FFF7D8FF2771BFF35F8F0834A9
:101DD000B442EFD3F8BDC046E8030020F80300206A
:101DE0000A4B1968EFF3108072B60A68002AFCD01B
:101DF000BFF35F8F1B68BFF35F8F00221A6080F311
:101E0000108840BF002000217047C04628080220EB
:101E1000F0B5DE4657464E464546E0B585B0EFF391
:101E20000582032313409A0011000392B64A5258C8
:101E3000904601229A40B54B91461A6031E04346E4
:101E40009B881BB2002B00DB9DE043469B79002B57
:101E500000D0EFE0434608241C5F002C00DA17E1B5
:101E600042465269630094461B19DB0063449C6838
:101E7000DD68631C00D113E1A54B03999C466144C6
:101E80009A6A0B69A01A9B1A984200D20C61A0486A
:101E900000F042FB241A8D41002D00DDF8E000D156
:101EA0002EE14B469A484363434608229B5E9A467E
:101EB000002BC4DB424652695B0093465344DB006F
:101EC0009B445B469E68DF6800F026FB801BB9419F
:101ED0000029B4DB002F00DAEDE05B468D4A1B6978
:101EE000934200D1E0E041465A460820085E5288FD
:101EF000000410435A465169984704000D0023001E
:101F00002B4300D1D7E0002D00DBF0E0361BAF41C2
:101F100034003D005B469C60DD600021595E002975
:101F20008DDB43465B6922009C462B00480040182D
:101F3000C00060448668C768921BBB41002B00DA72
:101F40007DE74346664602000094019519810CE046
:101F50007B00DB19DB00F318009801999C68DD68B1
:101F6000001BA941002904DB1A000023D75E002FC3
:101F7000EEDA5B461F805346138043469B881BB2B4
:101F8000002B00DA61E743461A69EFF3108172B65D
:101F90001368002BFCD0BFF35F8F43469B884246FB
:101FA0001BB29A4601235B4293801369BFF35F8F94
:101FB00000221A6081F310885346002B00DA44E7B0
:101FC00043465B699C46082343449B4653465F0057
:101FD00043465744FF0008229A5E67445E46BC6849
:101FE000FD68002A19DB3B000094019567469C467A
:101FF00004E01E000023F25E002A0BDB009801992A
:1020000053009B18DB00FB189C68DD68001BA9418E
:102010000029EEDA6346BC461F0053463380002198
:102020007B5E3A809A46002BD0DA43469B79002BA0
:1020300000D10FE7002342469371434646460821EC
:10204000595E08364B1C23D047468C46556902E042
:1020500006004B1C17D04B005B18DB00E8180A0089
:10206000E95E43881BB2002BF2DA01235B42DC17E6
:102070008360C4606245ECD031803B899446038024
:102080003A814B1CE7D16446B846002C00DBE7E6FA
:1020900040BF05B0F0BCBB46B246A946A046F0BD65
:1020A0006B1C00D0E8E6F2E65B465C692000236921
:1020B0009847002821D15B4642461B88138112694C
:1020C000EFF3108372B611680029FCD0BFF35F8F65
:1020D0004246594652880A8042465146518012690A
:1020E000BFF35F8F0021116083F31088A7E60848D3
:1020F00000F012FA24184D410CE765682468FEE6EA
:10210000002C00D1CDE6C3E7140702203C70054047
:1021100000400540111E001070B52E4C2569002DA1
:1021200004D00A212C48FFF727FE70BD2B4E032157
:10213000300000F0E7F9E660FFF76EFC284B032261
:102140009C46D02322701B061B6801216370254B1F
:102150006044A3600F2380002061022063806369D4
:102160004942A18019800231198647311D83585296
:1021700018315A5275325C399952183201319952DC
:1021800018320131995218320131995208351832FA
:102190009D52023118329952183201319952183237
:1021A0000131995218320131995218320131995244
:1021B0001832013199520C4B0C49DC600130356208
:1021C000FFF774FC01210320FFF752FC084B1D6050
:1021D000A7E7C0468C0300202808022000400540E5
:1021E00040000034FFFF100014070220111E0010F1
:1021F0003860054070B5C646010000B50469EFF3CC
:10220000108C72B620680028FCD0BFF35F8F0220CC
:102210000D5E48696C0080466419E4004444002D5A
:1022200001DB208848800869BFF35F8F00260660C5
:102230008CF31088002D30DBE36063880598013350
:1022400020615B0406985B0CA26060611A1C002B85
:1022500021D090B22B04628018430A69EFF31086F4
:1022600072B61368002BFCD0BFF35F8F8B8823807E
:102270008D800B69BFF35F8F00221A6086F3108890
:102280000B7801329A40CB6805498C4663441A604A
:1022900040BCB04670BD0122DBE701204042F7E7B9
:1022A0003C20000010B543890A14934233DD5300EB
:1022B0009B184269DB00944604696344EFF3108C79
:1022C00072B62268002AFCD0BFF35F8F5A880904D7
:1022D00094B2090C8A4208D00369BFF35F8F0022D1
:1022E0001A608CF31088002010BD80221202144363
:1022F0005C80012302698371BFF35F8F002111604D
:102300008CF31088054902788C469340C2680120FE
:1023100062441360E8E70020E6E7C0463C20000086
:10232000F0B504000D0006267642F717C6463619AA
:102330006F4100B582B08F4214D811D000F0F4F88C
:1023400032003B00121A8B41002B15DC002B44D0CD
:102350002000290000F01CF902B080BCB846F0BD96
:102360008642EBD90026002700F0DEF832003B0061
:10237000121A8B41002BE9DD00F0D6F832003B0049
:10238000121A8B41002B0ADB00230193144B3200FD
:10239000009314483B00FFF72DFF0028D8DBB04620
:1023A0000026BC46104A114F7B6A9C4504D8B96A86
:1023B0008845CDD99C45CBD11168EFF3108072B61A
:1023C0000B68002BFCD0BFF35F8F1368BFF35F8FE8
:1023D0001E6080F3108820BFE6E7002AB8D0CBE764
:1023E000E11D00108C030020280802200040054059
:1023F00070B5060000F098F8FA2204000D000023E2
:1024000030000021920000F07BFC00196941002996
:1024100002DBFFF785FF70BD012001494042F8E76C
:10242000FFFFFF7FF0B5CE46474680B504000D00A4
:1024300083B0EFF30587002F3BD12F4E81463378D1
:10244000F26804339B00916A9B58421A5B1A9A42C5
:102450000ED320BF294A0020536AAB4203D3926AAD
:10246000013091453CD803B0C0BCB946B046F0BD80
:1024700000F05AF822002B00121A8B41002B26DBA9
:102480001F4B2200009330002B000197FFF7B2FE94
:10249000011E1CDD194BA8465A6A954225D920BF5A
:1024A0003000FFF7FFFE154A0020536A9845DAD83E
:1024B000D5E7124A0020536A8B42D4D3926A013086
:1024C000A242D0D2581A421E9041C0B2CBE70B4A6A
:1024D0000020536AAB42C6D3926A01209145C2D90B
:1024E000E81A421E9041C0B2BDE79B6A9C42D7D910
:1024F0009542D5D1D3E7C0468C030020004005406B
:10250000E11D001010B5024A0248FFF763FA10BD42
:10251000D03500109C0602200300416A0A00986A28
:10252000596A8A42FAD17047034B596A0A00986A7D
:10253000596A9142FAD170470040054070B50400D5
:102540000D00124A536A1900966A536A8B42FAD1F7
:102550003000190024184D41AB4211D80ED02B0089
:102560000A494A6A9A42FCD307D1084A02E0516AF2
:10257000994202D1916AA142F9D370BDA642EED927
:10258000012301246442E5175B42E9E7004005406E
:10259000064A536A9942FCD807D1044B02E05A6AB2
:1025A000914202D19A6A8242F9D3704700400540B5
:1025B000F8B5040006200D0000F076F9002842D09E
:1025C000364B3749E21853425A418023DB039C467D
:1025D0009205344B62441A60334B1A6010000B684A
:1025E0009843FBD12D4B8021E3185A4253412F4A87
:1025F0005B0049009952062000F056F92900C000FE
:1026000000F0EAFA0130C3091ED1402701226262BC
:10261000A362266BF30722D4E36A254B0620E51854
:1026200000232B60266300F03FF93900800000F0A2
:10263000D3FA7022E36A5A407E2313402B601D4B6D
:1026400023630323A364F8BD1B4A93421ED90023CE
:102650001A4A1B4F6262A362266BF307DCD5194B43
:10266000144AE3181A60656AA26A0620AD01AD1823
:1026700000F01AF9144900F0AFFAAD020100280089
:1026800000F0AAFA0021FFF759FFC5E74006800EC7
:102690009F011A003F180300B9E7C0460080FCBF45
:1026A00008C0004000E0004000F000402C0802207C
:1026B0002C10000001030000FEFF0000FFFF0000DF
:1026C000C0FF3F00303000004E0E0000F8B5DE467F
:1026D0004E4657464546E0B58B4605000A99180018
:1026E000160000F079FA0A9B6C001F02324B641945
:1026F0009C46A4006444636881469F4200D9676099
:102700002B1FDBB29846012B30D9C02380229B01BE
:10271000E31812011A60294BAD0059599A46002955
:102720001BD1226876017240E02680231640424683
:102730005B01E3181E60012A30D9802380229B01AF
:10274000E31812011A6053464A4667605A51F0BCBA
:10275000BB46B246A946A046F8BD586900F03CFA0F
:10276000431C5800C0180338FDD2DAE75B46012B42
:10277000CBD1C02303229B01E3181A60023AA3685D
:102780001A42FCD0E0232268760156401E40802386
:102790000A4A5B019246E3181E60AD005A46216862
:1027A000514003220A401A6001225B469A40A36806
:1027B0001A42FCD0C1E7C04600800040A0060220BB
:1027C000F0B546464F46D646C0B51F00344B4400D0
:1027D0009C462418A4006444636888461600FF2BB6
:1027E00002D880235B006360031FDBB29A46012B93
:1027F00030D9C02380229B01E31812011A60294BB3
:1028000085005959994600291BD1226876017240EA
:10281000E0268023164052465B01E3181E60012A21
:1028200030D9802380229B01E31812011A60802393
:102830005B0063604B465F51E0BCBA46B146A846B8
:10284000F0BD586900F0C8F9431C5800C01803389F
:10285000FDD2DAE74346012BCBD1C02303229B01F3
:10286000E3181A60023AA3681A42FCD0E0232268F7
:10287000760156401E4080230A4A5B019146E318C8
:102880001E60850042462168514003220A401A60BA
:10289000012342469340A2681342FCD0C1E7C046E0
:1028A00000800040A0060220014B8000C058704705
:1028B000A0060220F8B5040020481D0017000E00F5
:1028C00000F08AF90100380000F086F9069B29041F
:1028D0001B0319432368002B1EDB194B194DE2180B
:1028E00053425A4180235B019C461203164B6244BB
:1028F0001A60164B1A6017002B689F43FBD1144BCC
:102900002660E2182123A06013602368002BFCDA04
:102910000823E1601360F8BD3F2322681340B342EF
:10292000DBD1A3681B051B0D8342D6D1EE22E368E1
:10293000D20213408B42D0D1EDE7C046001BB70056
:102940000040FDBF08C0004000E0004000F0004033
:10295000043000008023024A9B000B43D36270477F
:1029600000800540142310B50100188804331B882B
:10297000984710BD162310B50100188802331B8834
:10298000984710BDF8B54746CE4680B50F1E19D002
:1029900014239946043304000025012698464B462B
:1029A0001888434621681B88984701C4431E9841F4
:1029B000013540420640AF42F1D13000C0BCB946BB
:1029C000B046F8BD0126F8E7AA23064A1B011360AA
:1029D0002F230549D360054B19605368002BFCDA9F
:1029E0007047C0460040024000B0FA00006002405C
:1029F0007047C04610B50148FEF7D4FFF43500100B
:102A000070B5074D074EB54209D20024013E761B32
:102A1000B60808CD984723000134B342F9D170BD00
:102A2000F83400103435001070B5074D074EB5422C
:102A300009D20024013E761BB60808CD9847230032
:102A40000134B342F9D170BD2C350010343500107B
:102A5000054B064A06491A60064A074B1A601000E1
:102A60000B689843FBD1704700E00040BFCDFBFEF0
:102A700008C00040FE7F3C0000F00040044BDB6CCF
:102A8000002B03D18022034BD2021A607047C0464C
:102A9000000011504C201150044A054B1A60054AA1
:102AA0001368DB018033FBD17047C046FFFFFF0195
:102AB00000F0004008C000404022034B9A675A676C
:102AC0001A67DA667047C04600F0014010B5FEF79D
:102AD000AFFF10BD70B5044D044C2800C022A168A2
:102AE00000F06AF9A56070BD0000002000ED00E074
:102AF000002310B5294C82B0A367FFF765FF0122C0
:102B0000274B1A60636C012BFCD10322254B1A6002
:102B1000224A936B012BFCD1013300930121224AFD
:102B200022480433FFF7C6FE052301210093204A03
:102B30002048FFF7BFFE0022022104201E4BFFF7B2
:102B40003FFE0022012105201C4BFFF739FE002229
:102B5000002107201A4BFFF733FE00220021082036
:102B6000174BFFF72DFE8023DB000093002200218E
:102B70000920134BFFF7AAFD0022104B002106206D
:102B8000FFF71EFE0420FFF78FFE0E4900F024F829
:102B900001000020FFF7DEFE02B010BD0080004003
:102BA0003CB0004030B00040002F68590080024027
:102BB000008C864700C00240001BB70040597307D5
:102BC000006CDC0240420F0001480421014B184711
:102BD000B003002085290010114A936F9B0813D27F
:102BE00010665166002905D0FFE7FFE7FFE7516F48
:102BF000106F704704B5002801D00020C04300F0DA
:102C00006BFC002104BDC046F0B5146E556E576FC5
:102C1000166FFFF7E5FF1466556657671667F0BD38
:102C2000000000D010B50148FEF7BCFE00360010D1
:102C3000132370B51D78012D15D039DD1E48FFF71F
:102C400099FE06001D48FFF795FE1D4C80223100BD
:102C5000200000F0B1F8022D27D01A48FFF782FEBD
:102C6000194B186070BD194B154C23606360A3604D
:102C7000E36023616361A361E36123626362A36232
:102C8000E36223636363A363E36323646364A36412
:102C9000E36423656365A365E36523666366A366F2
:102CA000E36623676367A367E367094BA364D4E71D
:102CB000034C074BA364D0E7534400005346000085
:102CC000780500204C33000024070220252C00103A
:102CD000D52C001007B5604601880A0A0230DF2AA9
:102CE000FAD1C9B2820804D3028840880004104394
:102CF00000E00068014A5050039007BD78050020AD
:102D000051434343C9188C46110C83B24B4310B452
:102D1000040C614392B280B2504362431C041B0C0A
:102D2000001910BC59411304120CC01851416144E0
:102D30007047000010B50148FEF734FE583500100A
:102D4000132310B510481C78FFF714FE0100012C66
:102D50000AD003DD80220D4800F02EF80C48FFF762
:102D600001FE0C4B186010BD084C5422200000F0EE
:102D700023F82300084A80332168002900D122600B
:102D80000434A342F8D1E9E75346000028070220A3
:102D90004C33000024070220352D00100148042187
:102DA000014B1847C003002085290010014B1B6808
:102DB00018470000C0030020014B5B681847000063
:102DC000C0030020F0B514001D00EFF3108C72B6A4
:102DD000124E3368002BFCD0BFF35F8F026843684C
:102DE0000F6897420CD0026843680A604B60BFF3DB
:102DF0005F8F0022094B1A608CF310880020F0BD11
:102E00004F689F42EFD104604560BFF35F8F00239E
:102E100033608CF310880120F1E7C046340100D004
:102E200010B5002800D110BD00F036F9FBE7C04610
:102E300010B5094A0300146884B0002C08D00122A0
:102E400000910648524203A9A047012004B010BDDA
:102E500000F06EF90020F9E710070220212E001083
:102E600000BEFDE710B5FFF7FBFFC04670B5FFF7EA
:102E7000C7FD074D074EB54209D20024013E761B1F
:102E8000B60808CD984723000134B342F9D170BD8C
:102E90003435001038350010030010B5080011005B
:102EA0001B68984710BDC046F0B546464F46D6460B
:102EB000C0B5437D80460E001700002B46D0002A87
:102EC0003FDD4B1E9946244B0125002400209A46E5
:102ED0000DE04B461B5D0D3B5A425341325DDBB268
:102EE0000A2A0BD02B00013401359F421ADD002C39
:102EF000EFD14346325D1B7D0A2AF3D1002BF1D17D
:102F0000A04204DA4346211A1B683018984743460A
:102F100050461B6802219847013428002B000135D8
:102F20009F42E4DC874204DD4346391A1B683018AF
:102F30009847F619013E33780D3B5A4253414246B9
:102F40001375E0BCBA46B146A846F0BD036811004F
:102F500030009847F5E7C046A8360010F0B5DE46C9
:102F600057464E464546E0B585B017001C000600A2
:102F70000D00FFF7D9FA0023314A12184B41002BFC
:102F800059DB304908008A4600F0AEFA01906B1C0C
:102F900003D1300000F068FA0500002C26D12A4B3E
:102FA00098462A4B1C68002C15D0002F21D1284FA1
:102FB00002E02469002C0ED02368002BF9D03B6876
:102FC000002B01D0A342F4D120002A003100C047D9
:102FD0002469002CF0D1019B002B28D1280005B0DA
:102FE000F0BCBB46B246A946A046F0BD194B984678
:102FF000D7E7174B994602ABDF1D0A239B4602E039
:103000002469002CE7D02368002BF9D04B461B68BD
:10301000002B01D0A342F3D12A0031002000C04789
:103020005B460122390020003B70C047E8E750466C
:1030300000F04AFAD2E70122074B5242A1E7C0460C
:1030400040420F00F0030020992E0010C806022015
:103050000C070220A92E0010FFFFFF7F0A4A136809
:10306000002B05D10CE01A001B691032002B07D091
:103070009842F8D1002902D10369136001617047B9
:103080000029FCD01060FAE7C806022010B500F055
:1030900037F9012010BDC046F0B5CE46474680B591
:1030A00083B06B460600DD1D2870FFF73DFA002354
:1030B0001A4A12184B41002B2BDB1949080088468D
:1030C00000F012FA174B81461C68002C14D0164FE2
:1030D00002E02469002C0FD02368002BF9D03B6854
:1030E000002B01D0A342F4D1200001222900FFF7D8
:1030F000DBFE2469002CEFD14B46002B05D13000BC
:1031000003B0C0BCB946B046F0BD404600F0DCF9A3
:10311000F5E70122054B5242CFE7C04640420F007F
:10312000F0030020C80602200C070220FFFFFF7FEB
:1031300070B5040000F098F9012301000500012298
:103140002000FFF70BFF084B1C68002C06D06368BB
:10315000002B05D098472469002CF8D1280070BDB9
:103160002469002CF3D1F9E7C8060220F0B50D1E42
:1031700015DD0E4B0D271A680D4B4519D318594212
:103180004B410C495B005E5E20210478A64207D0CB
:1031900093691942FCD101301460A842F5D1F0BD09
:1031A00093691942FCD11760F2E7C046300802204B
:1031B0000080FCBF2C08022030B504000D1E24DD69
:1031C000002010211A4B013C1A689369194217D14B
:1031D000013093691942FCD1136823548542F4D11C
:1031E000144B1B68002B0AD050239363516B183B80
:1031F0000B4011498C4662441360002814D030BD46
:103200000C4B1B68002BEFD1F7E70A4B1B68002B18
:103210000AD05022064B1B689A63596B183A0A4031
:1032200005498C4663441A6003204042E7E7C046E4
:10323000300802209406022034100000064B10B51E
:103240001B68002B06D00021044A12689163044ACF
:103250001068984710BDC04694060220300802202E
:10326000980602200822034B19688B691A42FCD188
:103270007047C0463008022070B51B4E1B4B3268A9
:103280000500D3185842434114331C00002D04D0CC
:10329000174B1A68002A11D070BD154E3368002BE9
:1032A000FAD0002120009563FEF7E2FB20001149CF
:1032B000FEF726FC104B35601D60EDE71D600E4BE0
:1032C000200019600B49FEF7F1FB01212000FEF7F9
:1032D000CFFB502233689A63596B183A0A4007496A
:1032E0008C4663441A60D7E7300802200080FCBF98
:1032F000940602203D32001098060220341000008F
:103300000D4B10B51B780D4B0D4C1B780D4B02214E
:103310001B780D4B00202360FEF7DCFA0221012010
:10332000FEF7D8FAE12120684902FFF741F90121AF
:103330000648FFF793FE10BD103700101437001039
:10334000300802201837001000400340D00300204E
:1033500001230121084A1360084A1360084A080043
:1033600013689843FBD1074A116080214900136814
:103370000B42FCD07047C04600E0004000F0004027
:1033800008C0004000C0044003BDC04610B50400A2
:10339000FFF74AFBA04710BDF0B5040087B00F202F
:1033A0000E001700FEF776FB002105000F20FEF748
:1033B0005FFB002300220092019301230293D0239C
:1033C00004960594002600240121022003971B0681
:1033D000002C14D01A6D1042FCD05C6540BF1A6DF1
:1033E000114203D120BF1A6D1142FBD09A6DA24247
:1033F0000AD000266C46B200A458E9E79A6D1A6D0F
:103400001142FBD140BFE5E70136052EF2D9290074
:103410000F20FEF72DFB07B0F0BDC0460B4B0C4A4A
:1034200010B5934201D201235B420A4C0A4A1900AB
:1034300092681851FF20A446C0001B50074B084853
:10344000C85008486144FFF7A7FF10BD00080420DA
:1034500000000420F407000000ED00E0FC0700007D
:103460008D3300108933001010B583070AD0030094
:10347000032102E001330B4205D01A78002AF9D16A
:10348000181A10BD030019680C4A0D4C8A188A439B
:1034900022420FD15968094A04338A188A432242CA
:1034A00008D15968054A04338A188A432242F1D068
:1034B00000E001331A78002AFBD1E1E7FFFEFEFEAF
:1034C00080808080F8B5C04601B40248844601BCC3
:1034D000604700BF5D01002001B40248844601BC82
:1034E000604700BF8501002001B40248844601BC4A
:1034F000604700BFC1000020512A00107D2A001043
:10350000C92B00109D2D0010312C0010412D0010F2
:10351000F12A0010992A0010B92A0010CD2A0010B3
:10352000891D0010D52A001019210010F129001062
:083530004D1A0010FD0200100D
:10353800556E68616E646C6564204952512030781C
:1035480025780A0052617370626572727920506939
:103558000000000053746566616E204465766963F7
:103568006500000009022000010100C032000000CF
:10357800120110010000004010101010000001029C
:10358800000100000705800040000000070500005A
:103598004000000007050102400000000705820204
:1035A800400000000904000002FF000000000000C5
:1035B800040309040A2A2A2A2050414E4943202A92
:1035C8002A2A0A000A00000048617264776172655D
:1035D80020616C61726D20256420616C7265616484
:1035E8007920636C61696D656400000048617264EC
:1035F80020617373657274006D697373696E6720F7
:10360800646F75626C652066756E6374696F6E00B1
:1036180052656C6561736500626F6F74325F7732F3
:103628003571303830000000322E312E3000000065
:103638007069636F5F770000656E74726F707900F0
:103648004A616E2032372032303235000500525040
:10365800DE65F468543A0010060052505422A29DC8
:103668004836001006005250861C030240360010EF
:1036780006005250BBFF3CB63836001006005250C8
:10368800ABB360533036001006005250E182887F99
:103698002036001006005250D3F07542183600103C
:1036A8000D0A00005541525420737464696E00007D
:1036B80055415254207374646F75740055415254C7
:1036C80020737464696E202F207374646F7574009E
:1036D8000600525053B4F4A1C436001008005250EA
:0C36E80012000000080052509210000078
:1036F40054360010603600106C3600107836001016
:1037040084360010903600109C360010D836001015
:08371400E4360010EC36001051
:10371C00F0B5C646150000B504001E000268EFF3B4
:10372C00108172B61368002BFCD0BFF35F8F04239B
:10373C00E356002B2DDB2268BFF35F8F0020106057
:10374C0081F31088D0221206127852B290469A4217
:10375C0003D1002080BCB846F0BD00270BE02368E5
:10376C00BFF35F8F1F6081F310882800310000F0D9
:10377C0033F80028EDD12268EFF3108172B613688C
:10378C00002BFCD0BFF35F8F23797F2BE7D9434607
:10379C0002E0D0231B061B6823712368BFF35F8FE5
:1037AC0000221A6081F310880120D3E70268EFF33E
:1037BC00108172B61368002BFCD0BFF35F8FFF2310
:1037CC0003710368BFF35F8F00221A6081F31088C6
:1037DC0040BF70477047C04601B40248844601BCE4
:1037EC00604700BF252400104C3500105C350010DC
:1037FC0078350010AC3500106C350010B835001061
:10380C009801002094350010D9040010000000002D
:10381C008400105000011050000000008C35001086
:10382C00B90700100000000080001050000110507B
:10383C00000000009C350010450600100C001050D4
:10384C008C0010508001105000000000A4350010B6
:10385C00DD0400101000105090001050C0011050EA
:10386C00000000000000000000000000000000004C
:10387C00000000000000000000000000000000003C
:10388C00000000000000000000000000000000002C
:10389C00000000000000000000000000000000001C
:1038AC00000000000000000000000000000000000C
:1038BC0000000000000000000000000000000000FC
:1038CC0000000000000000000000000000000000EC
:1038DC0000000000000000000000000000000000DC
:1038EC0000000000000000000000000000000000CC
:1038FC0000000000000000000000000000000000BC
:10390C0000000000000000000000000000000000AB
:10391C00000000000000000000000000000000009B
:10392C00000000000000000000000000000000008B
:10393C00000000000000000000000000000000007B
:10394C00000000000000000000000000000000006B
:10395C00000000000000000000000000000000005B
:10396C00000000000000000000000000000000004B
:10397C00000000000000000000000000000000003B
:10398C0000000000000000009406002094060020B7
:10399C00100000000000000000000100000000000A
:1039AC000000000000000200000000000000000009
:1039BC000000030000000000000000000000FF00F9
:1039CC000000000001B5486801318E460047704682
:1039DC0009380149884701BDC51C001000000000D2
:1039EC0000000000000000000000000000000000CB
:1039FC00F8030020000000000000000000000000A0
:103A0C00503300004C33000054330000523300009C
:103A1C004D5300004D43000053340000433400006C
:103A2C006D31001065320010B93100107932001080
:103A3C000000000000010000000000000000000079
:083A4C00000000000000000072
:04000005100001E9FD
:00000001FF
